:020000040800F2
:1000000000000220F1210008E1070008E3070008D2
:10001000E5070008E7070008E907000800000000FE
:10002000000000000000000000000000EB070008D6
:10003000ED07000800000000EF070008F1070008C6
:100040004122000841220008412200084122000804
:1000500041220008412200084122000841220008F4
:1000600041220008412200084122000841220008E4
:1000700041220008412200084122000841220008D4
:10008000412200084122000841220008000000002F
:1000900000000000000000000000000041220008F5
:1000A00041220008412200084122000841220008A4
:1000B0004122000841220008412200084122000894
:1000C0004122000841220008412200084122000884
:1000D0004122000841220008F90700080000000042
:1000E00041220008412200084122000800000000CF
:1000F0000000000000000000000000004122000895
:1001000000000000412200084122000841220008AE
:1001100000000000000000000000000000000000DF
:100120004122000841220008090800084122000875
:100130004122000800000000000000000000000054
:100140000000000000000000000000004122000844
:1001500041220008412200084122000841220008F3
:1001600041220008412200080000000000000000B9
:10017000000000000000000000000000000000007F
:100180000000000041220008000000000000000004
:08019000412200084122000891
:1001980010B5054C237833B9044B13B10448AFF3B9
:1001A80000800123237010BD0C0000200000000017
:1001B8009C22000808B5034B1BB103490348AFF361
:1001C800008008BD00000000100000209C220008EC
:1001D80053B94AB9002908BF00281CBF4FF0FF31A6
:1001E8004FF0FF3000F072B9ADF1080C6DE904CEA4
:1001F80000F006F8DDF804E0DDE9022304B07047FA
:100208002DE9F047089E04468846002B4BD18A42C8
:10021800154667D9B2FA82F24AB1C2F1200701FA4B
:1002280002F320FA07F7954047EA030894404FEA9B
:10023800154E230CB8FBFEF71FFA85FC0EFB17883A
:1002480043EA084307FB0CF1994209D9EB1807F177
:10025800FF3080F01B81994240F21881023F2B4405
:100268005B1AA4B2B3FBFEF00EFB103344EA03445E
:1002780000FB0CFCA44509D92C1900F1FF3380F0D0
:100288000781A44540F2048102382C4440EA074023
:10029800A4EB0C0400271EB1D4400023C6E9004398
:1002A8003946BDE8F0878B4209D9002E00F0EB8073
:1002B8000027C6E9000138463946BDE8F087B3FA99
:1002C80083F7002F47D18B4202D3824200F2FA8093
:1002D800841A61EB030301209846002EE0D0C6E99A
:1002E8000048DDE702B9FFDEB2FA82F2002A40F0E8
:1002F8008F80491B4FEA154E1FFA85F80127B1FB7D
:10030800FEFC230C0EFB1C1143EA014308FB0CF115
:10031800994207D9EB180CF1FF3002D2994200F24A
:10032800CD808446591AA3B2B1FBFEF00EFB10141F
:1003380043EA044408FB00F8A04507D92C1900F14A
:10034800FF3302D2A04500F2B6801846A4EB080499
:1003580040EA0C409FE7C7F1200CBB4022FA0CFE94
:100368004EEA030E01FA07F420FA0CF521FA0CF311
:100378004FEA1E482543B3FBF8F92C0C08FB193348
:100388001FFA8EFA44EA034309FB0AF49C4202FA74
:1003980007F200FA07F10BD91EEB030309F1FF304E
:1003A80080F087809C4240F28480A9F1020973445E
:1003B8001B1BADB2B3FBF8F008FB103345EA03444E
:1003C80000FB0AFAA24508D91EEB040400F1FF332A
:1003D8006BD2A24569D90238744440EA0940A0FBAF
:1003E8000289A4EB0A044C45C2464B4654D351D06B
:1003F800002E69D0B1EB0A0564EB030404FA0CFC87
:10040800FD40FC404CEA0505C6E90054002747E7D3
:10041800C2F1200320FA03F7954001FA02F021FA0D
:1004280003F34FEA154E3843010CB3FBFEF71FFAEE
:1004380085F80EFB173341EA034107FB08F38B42AB
:1004480004FA02F407D9691807F1FF3C2FD28B424E
:100458002DD9023F2944CB1A81B2B3FBFEF00EFB23
:10046800103341EA034100FB08F38B4207D96918AE
:1004780000F1FF3C17D28B4215D902382944C91A1A
:1004880040EA07473BE73746304609E70746E7E6CD
:100498001846FBE64145ABD2B8EB020A69EB0E02FF
:1004A80001381346A4E76046E9E7184695E767462A
:1004B800D1E781467CE702382C4447E7ACF1020CCF
:1004C8002B442FE7384608E73746E9E6704700BF70
:1004D80082B0002100910B4B1A6B42F080021A6324
:1004E8001A6B02F080020092009A01911A6B42F096
:1004F80001021A631B6B03F001030193019B02B015
:10050800704700BF0038024000B583B00021019158
:10051800094B1A6B42F480021A631B6B03F48003C5
:100528000193019B0A463A2000F0E2F93A2000F0D4
:1005380013FA03B05DF804FB0038024008B5094817
:10054800094B03604FF40073436000238360C3606A
:1005580003614FF4FA4242618361C361036200F0B0
:10056800BFFC08BD280000200030014008B508483D
:10057800084B036047F61223436000238360C3607F
:1005880003610C2242618361C36101F003FD08BD70
:10059800700000200044004070B59AB0302200215D
:1005A8000EA801F06FFE002409940A940B940C9491
:1005B8000D94039404940594069407940894019464
:1005C8001F4B1A6C42F080521A641B6C03F0805364
:1005D8000193019B02941B4B1A6842F440421A6033
:1005E8001B6803F440430293029B01260E964FF4C6
:1005F80080330F93022514954FF4800315930C2331
:100608001693602317931895042319930EA800F0E6
:100618005FFF0F2309930A950B944FF480530C93B3
:100628000D94032109A801F09DF90396C0230593B1
:1006380010230493069503A801F06AFA1AB070BD56
:10064800003802400070004008B500F013F9FFF7C9
:10065800A3FFFFF73DFFFFF757FFFFF76FFFFFF718
:1006680085FFFEE77047000082B0002100910B4B28
:100678005A6C42F480425A645A6C02F480420092E6
:10068800009A01911A6C42F080521A641B6C03F0B4
:1006980080530193019B02B0704700BF00380240AD
:1006A80030B589B000230393049305930693079309
:1006B8000268264B9A4201D009B030BD0446002595
:1006C800019503F584335A6C42F480525A645A6C8B
:1006D80002F480520192019A02951A6B42F00102CB
:1006E8001A631B6B03F001030293029BB02303936D
:1006F800022304930523079303A9154800F01EFB62
:100708001448154B03604FF08063436040238360B7
:10071800C5604FF4806303614FF4006343614FF495
:10072800005383614FF48073C361056204234362FD
:1007380003238362C562056300F098F918B9054B75
:10074800A3639C63B8E7FFF78DFFF8E7003001402B
:1007580000000240B00000204064024010B588B09C
:100768000023039304930593069307930268184B99
:100778009A4201D008B010BD0024019403F5FA3361
:100788001A6C42F400321A641A6C02F400320192B4
:10079800019A02941A6B42F001021A631B6B03F070
:1007A80001030293029B0C23039302230493032364
:1007B80006930723079303A9064800F0BFFA2246C9
:1007C8002146262000F094F8262000F0C5F8D1E74D
:1007D80000440040000002407047FEE7FEE7FEE7E5
:1007E800FEE770477047704708B500F05DF808BD30
:1007F80008B5024801F05CFC08BD00BF700000208D
:1008080008B5024800F0ACF908BD00BFB0000020F0
:10081800054BD3F8882042F47002C3F888204FF0C3
:1008280000629A60704700BF00ED00E010B5044612
:100838000E4B18784FF47A73B3FBF0F30C4A106838
:10084800B0FBF3F000F096F868B90F2C01D901203D
:100858000AE0002221464FF0FF3000F049F8034B30
:100868005C60002000E0012010BD00BF04000020F3
:100878000000002008B50B4B1A6842F400721A6099
:100888001A6842F480621A601A6842F480721A6028
:10089800032000F01BF80020FFF7C8FFFFF7E4FE75
:1008A800002008BD003C0240034A1168034B1B7836
:1008B8000B441360704700BF1001002004000020A3
:1008C800014B1868704700BF10010020074AD36821
:1008D80023F4E0631B041B0C000200F4E0601843DF
:1008E80040F0BF6040F40030D060704700ED00E099
:1008F80030B4174BDB68C3F30223C3F10704042C9D
:1009080028BF04241D1D062D18D9033B4FF0FF35C1
:1009180005FA04F421EA0401994005FA03F322EAEE
:100928000303194300280BDB0901C9B200F1604039
:1009380000F5614080F8001330BC70470023E5E7FC
:1009480000F00F000901C9B2024B1954F4E700BFC7
:1009580000ED00E014ED00E0002807DB00F01F02C6
:10096800400901239340024A42F82030704700BFF3
:1009780000E100E00138B0F1807F0AD2064B5860F0
:10098800064AF02182F823100020986007221A6096
:1009980070470120704700BF10E000E000ED00E064
:1009A8000268D3B2103B0B49A1FB03131B090A4988
:1009B800C95CC165032B06D822F47F7222F00302BA
:1009C8008265806D704722F47F7222F00302043240
:1009D8008265F6E7ABAAAAAACC220008836A8269D4
:1009E80092B9012B0AD01BB1022B01D0002070470D
:1009F800C36A13F0807F2CD100207047C36AB3F11B
:100A0800C07F28D000207047B2F5005F05D0022BC8
:100A180029D9032B15D000207047032B03D8DFE812
:100A280003F01C041C0A00207047C36A13F0807F7F
:100A380015D100207047C36AB3F1C07F11D00020E0
:100A48007047C36A13F0807F01D0012070470020EF
:100A5800704701207047012070470120704701202E
:100A680070470120704701207047000070B50446A8
:100A7800FFF726FF002C5BD00546002384F83430AE
:100A8800022384F835302268136823F001031360C9
:100A980023681A6812F0010F0AD0FFF711FF401BF4
:100AA8000528F5D920236365032084F8350070BD37
:100AB8001A68204810406168A2680A43E1680A433E
:100AC80021690A4361690A43A1690A43E1690A4342
:100AD800216A0A430243616A04291ED01A60266803
:100AE800756925F00705636A1D43042B07D1A36ABE
:100AF8001D43E36A1BB12046FFF770FF90B975618B
:100B08002046FFF74DFFE26D3F23934083600020AE
:100B18006065012384F83530C9E7E16A206B014339
:100B28000A43DBE740236365012084F83500BEE70C
:100B38000120BCE73F8010F090F83530DBB2022B83
:100B480003D08023436501207047052380F83530A2
:100B58000268136823F00103136000207047000047
:100B6800F0B583B0044600230193724B1D68724BA5
:100B7800A3FB0535AD0A876D3E68C26D0823934017
:100B8800334210D003681A6812F0040F0BD01A68A9
:100B980022F004021A60C26D08239340BB60436DC3
:100BA80043F001034365E26D01239340334209D0CA
:100BB8002268526912F0800F04D0BB60636D43F065
:100BC80002036365E26D04239340334209D022682F
:100BD800126812F0020F04D0BB60636D43F0040387
:100BE8006365E26D10239340334224D02268126873
:100BF80012F0080F1FD0BB6023681A6812F4802F08
:100C08000DD01B6813F4002F04D1236C9BB1204630
:100C1800984710E0A36C73B1204698470BE01A6818
:100C280012F4807F03D11A6822F008021A60236C3C
:100C38000BB120469847E26D20239340334255D0AC
:100C48002268126812F0100F50D0BB6094F835304B
:100C5800DBB2052B0ED023681A6812F4802F33D02C
:100C68001B6813F4002F2AD1636C002B3ED020465A
:100C780098473BE02268136823F016031360226844
:100C8800536923F080035361236CA3B1226813686E
:100C980023F008031360E26D3F239340BB600023F9
:100CA80084F83430012384F83530236D002B3FD08D
:100CB800204698473CE0A36C002BE7D1EBE7E36BB9
:100CC800A3B12046984711E01A6812F4807F09D131
:100CD8001A6822F010021A60002384F834300123C5
:100CE80084F83530E36B0BB120469847636DFBB150
:100CF800636D13F0010F17D0052384F8353022688F
:100D0800136823F001031360019B01330193AB4285
:100D180004D823681B6813F0010FF5D1002384F869
:100D28003430012384F83530E36C0BB12046984702
:100D380003B0F0BD00000020B5814E1B00230F2B2F
:100D480000F2C580F0B583B039E0042200E000224B
:100D5800AA403A4302345E4D45F824205D4A14689F
:100D6800F24302EA04054F6817F4803F01D046EACF
:100D78000405584C2560646802EA04054F6817F4B6
:100D8800003F01D046EA0405524C6560A46802EAB7
:100D980004054F6817F4801F01D046EA04054D4C3E
:100DA800A560E46822404D6815F4001F01D046EAAA
:100DB8000402484CE26001330F2B00F286800122C6
:100DC8009A400C6804EA0206B242F4D14C68651EE7
:100DD800012D03D9112C01D0122C12D185685F0086
:100DE8000324BC4025EA0405CC68BC402C4384603D
:100DF800456825EA02054C68C4F300129A402A4364
:100E08004260C4685F000322BA40D24314408D6830
:100E1800BD402543C5604C68022C01D0122C13D16B
:100E2800DD08083550F825E003F007044FEA840C84
:100E38000F2404FA0CF42EEA040E0C6904FA0CF4DC
:100E480044EA0E0440F82540046822404C6804F047
:100E58000304BC40224302604A6812F0805FAAD0B3
:100E6800002201921C4A546C44F480445464526C2D
:100E780002F480420192019A9C08A51C144A52F877
:100E8800257003F0030295000F22AA4027EA020703
:100E9800124A90423FF45BAF02F5806290420ED056
:100EA80002F5806290420CD002F5806290420AD02E
:100EB80002F5806290423FF448AF072248E70122DA
:100EC80046E7022244E7032242E703B0F0BD704739
:100ED80000380140003C0140003802400000024058
:100EE800002800F0BF8070B5044690F84130002B10
:100EF80051D0022284F841202168CB6923F47B6316
:100F080023F00F03CB6123681A626369934263D0AD
:100F1800E368002B46D11025A368202B00D86D006C
:100F2800012000F0ADFE2369B3F5007F3CD0B0FB93
:100F3800F5F000EB800043006269B3FBF2F3053380
:100F4800494AA2FB0323DB0803F001029B1A5B0852
:100F58001202991EFD2941D821690A4321681343C9
:100F68000B622168CB6923F47B6323F00F0362686B
:100F7800A0680243E0680243A0690243134343F4B4
:100F88000063CB61236A012B2ED00020606401230B
:100F980084F8413070BD80F84030344B4363FFF72C
:100FA8007FFBA6E72025B7E7E36853B1AD00B0FBA8
:100FB800F5F000EB800043006269B3FBF2F3053300
:100FC800BEE7ED00B0FBF5F000EB8000430062697E
:100FD800B3FBF2F30533B3E70022BAE7636C43F0DF
:100FE800100363640120D5E7214B63632268214B1A
:100FF8009A421FD04FF04022D36923F47B6323F039
:101008000F03D36122681B4B9A4215D04FF040233F
:1010180002221A622268174B9A4210D04FF04021E0
:10102800CA6992B26368B3F5007F0AD0C3B94FF4B6
:10103800807608E0104ADFE7A3F58063E8E70E4909
:10104800EEE74FF48076A068E568238B2B439BB2CC
:1010580003439BB23343134343F40063CB6194E7E8
:101068000026F0E701207047CDCCCCCCF710000863
:10107800011300080038004000340040704708B5EC
:10108800426A03681288DA60436A02334362438D16
:10109800013B9BB24385438D9BB203B108BD0268F7
:1010A800536823F0A0035360012380F84130FFF711
:1010B800E5FFF3E7704708B50368DA68C36A1A8082
:1010C800C36A0233C362438E013B9BB24386438E9D
:1010D8009BB203B108BD0268536823F060035360F4
:1010E800012380F84130FFF7E5FFF3E7704710B5BB
:1010F80084B0044602689368039390F84130DBB2E9
:10110800042B06D094F84130DBB2032B2CD004B06A
:1011180010BD039B13F0010F03D0536813F0400F69
:101128001FD1039B13F0400FECD023685A6812F0CC
:10113800200FE7D05A6822F060025A60002301931A
:101148002368DA6801929B680193019B012384F864
:101158004130636C43F0020363642046FFF7C6FF27
:10116800D0E7FFF7A8FFDCE7039B13F0020F04D0DA
:1011780023685B6813F0800F1DD1039B13F0080FE1
:10118800C5D023685A6812F0200FC0D05A6822F0E0
:10119800A0025A600023029323689B680293029B73
:1011A800012384F84130636C43F0040363642046F0
:1011B800FFF79CFFABE72046FFF761FFDDE77047CD
:1011C80008B5436A9A1C426202681B88D360438D43
:1011D800013B9BB24385438D9BB23BB90268536880
:1011E80023F0A0035360438E9BB203B108BD0123D3
:1011F80080F84130FFF7E3FFF8E7000008B5026820
:10120800144B9A421BD04FF04023DA68C36A991CEA
:10121800C1621A80438E013B9BB24386438E9BB2C8
:1012280063B902680B4B9A420CD04FF040225368C6
:1012380023F060035360438D9BB22BB108BDA3F527
:101248008063E2E7044AF2E7012380F84130FFF7C0
:10125800B6FFF3E7003800400034004008B5436AA1
:101268009A1C42621A880168124B994217D04FF0B3
:101278004023DA60438D013B9BB24385438D9BB28B
:1012880063B902680B4B9A420CD04FF04022536866
:1012980023F0A0035360438E9BB22BB108BDA3F586
:1012A8008063E6E7044AF2E7012380F84130FFF75C
:1012B80086FFF3E7003800400034004008B50368B3
:1012C800DA68C36A991CC1621A80438E013B9BB2DB
:1012D8004386438E9BB23BB90268536823F0600390
:1012E8005360438D9BB203B108BD012380F84130A0
:1012F800FFF765FFF8E7000010B586B004460368FD
:101308009A680592704A93426FD04FF040229168D4
:1013180004915B680393536802936368B3F5007F95
:1013280001D0002B70D1059B13F0020F03D0039B53
:1013380013F0800F5CD1049B13F0010F03D0029BC4
:1013480013F0400F58D1049B13F0400F24D0029B98
:1013580013F0200F20D022685B4B9A4250D04FF0F8
:101368004022536823F0600353602268536823F0D7
:10137800A0035360002300932368DA6800929B68F7
:101388000093009B012384F84130636C43F002030F
:1013980063642046FFF7AAFE059B13F0080F22D0CE
:1013A800039B13F0200F1ED02268536823F0A0037C
:1013B80053602268444B9A4224D04FF0402253682D
:1013C80023F0600353600023019323689B68019313
:1013D800019B012384F84130636C43F00403636488
:1013E8002046FFF783FE06B010BDA2F580628EE7A7
:1013F8002046FFF7E5FE9EE72046FFF7FFFEA2E73F
:10140800324AAEE7314ADAE7049B13F0020F03D001
:10141800029B13F0800F4AD1059B13F0010F03D0F4
:10142800039B13F0400F46D1059B13F0400F1CD0CF
:10143800039B13F0200F18D02268536823F0600331
:1014480053602268204B9A4239D04FF040225368AB
:1014580023F0A0035360012384F84130636C43F008
:10146800020363642046FFF741FE049B13F0080F54
:10147800B9D0029B13F0200FB5D02268124B9A42C4
:101488001FD04FF04022536823F0A0035360226816
:10149800536823F060035360012384F84130636C80
:1014A80043F0040363642046FFF720FE9BE72046D1
:1014B800FFF7D4FEB0E72046FFF700FFB4E7034A82
:1014C800C5E7024ADFE700BF0038004000340040AB
:1014D800002800F0E48170B582B00446036813F078
:1014E800010F3BD0A74B9B6803F00C03042B2CD0B7
:1014F800A44B9B6803F00C03082B21D06368B3F559
:10150800803F4FD0B3F5A02F52D09E4B1A6822F4DB
:1015180080321A601A6822F480221A606368002BED
:1015280050D0FFF7CDF90546964B1B6813F4003FE2
:1015380014D1FFF7C5F9401B6428F5D90320B3E19E
:10154800904B5B6813F4800FD8D08E4B1B6813F454
:10155800003F03D06368002B00F0A381236813F0D9
:10156800020F55D0874B9B6813F00C0F3ED0854B6C
:101578009B6803F00C03082B33D0E368002B68D07A
:10158800814B01221A60FFF79BF905467D4B1B68CA
:1015980013F0020F54D1FFF793F9401B0228F5D935
:1015A800032081E1774A136843F480331360B5E779
:1015B800744B1A6842F480221A601A6842F4803226
:1015C8001A60ABE7FFF77CF905466E4B1B6813F40E
:1015D800003FC3D0FFF774F9401B6428F5D90320F6
:1015E80062E1684B5B6813F4800FC6D1654B1B68DA
:1015F80013F0020F04D0E368012B01D0012053E15E
:10160800604A136823F0F803216943EAC1031360B1
:10161800236813F0080F40D0636963B35B4B012262
:101628001A60FFF74DF90546564B5B6F13F0020F32
:1016380033D1FFF745F9401B0228F5D9032033E1E0
:10164800504A136823F0F803216943EAC103136081
:10165800DEE74D4B00221A60FFF732F90546494B89
:101668001B6813F0020FD3D0FFF72AF9401B02289A
:10167800F5D9032018E1454B00221A60FFF720F93D
:101688000546404B5B6F13F0020F06D0FFF718F9C1
:10169800401B0228F5D9032006E1236813F0040F44
:1016A80079D0384B1B6C13F0805F33D10023019342
:1016B800344B1A6C42F080521A641B6C03F080534E
:1016C8000193019B0125324B1B6813F4807F23D0C3
:1016D800A368012B34D0052B38D02A4B1A6F22F07F
:1016E80001021A671A6F22F004021A67A368002B16
:1016F80036D0FFF7E5F80646224B1B6F13F0020FB2
:1017080048D1FFF7DDF8801B41F288339842F3D9BE
:101718000320C9E00025D6E71D4A136843F4807307
:101728001360FFF7CDF80646194B1B6813F4807F4A
:10173800CED1FFF7C5F8801B0228F5D90320B3E006
:10174800104A136F43F001031367CFE70D4B1A6F6D
:1017580042F004021A671A6F42F001021A67C5E7DD
:10176800FFF7AEF80646074B1B6F13F0020F11D0B8
:10177800FFF7A6F8801B41F288339842F3D903207B
:1017880092E000BF0038024000004742800E474206
:1017980000700040EDB9A369002B00F08480454A31
:1017A800926802F00C02082A51D0022B17D0424B43
:1017B80000221A60FFF784F804463E4B1B6813F0BA
:1017C800007F42D0FFF77CF8001B0228F5D90320E0
:1017D8006AE0384A136C23F080531364DBE7364B16
:1017E80000221A60FFF76CF80546324B1B6813F0AD
:1017F800007F06D0FFF764F8401B0228F5D90320C4
:1018080052E0E369226A1343626A43EA8213A26AD6
:101818005208013A43EA0243E26A43EA0263254A6C
:101828005360254B01221A60FFF74AF80446214B02
:101838001B6813F0007F06D1FFF742F8001B02284F
:10184800F5D9032030E000202EE000202CE0012B09
:101858002CD0184B5B6803F48001E269914201D0F7
:10186800012021E003F03F02216A8A4201D00120D1
:101878001AE0616A47F6C0721A408A4201D0012014
:1018880012E003F44032A16A8A4201D001200BE041
:1018980003F07063E26A93420AD0012004E0012059
:1018A8007047012000E0002002B070BD0120FBE776
:1018B8000020F9E70038024060004742264B9B6849
:1018C80003F00C03042B44D0082B01D023487047A5
:1018D8002DE9F04B204B5A6802F03F025B6813F485
:1018E800800F13D01C4B5968C1F3881100231C4882
:1018F800A1FB0001FEF76CFC174B5B68C3F30143C7
:1019080001335B00B0FBF3F0BDE8F08B124B5B6872
:10191800C3F388131E4600275C010025E41A65EB13
:101928000705A90141EA9461A001001B61EB0501CB
:10193800CB0043EA5073C400A01943EB07018B02A4
:1019480043EA90538402204619460023FEF740FCE0
:10195800D2E70348704700BF003802400024F40073
:1019680040787D01002800F09E8070B50446504BF9
:101978001B6803F00F038B4209D2CBB24C4A137099
:10198800136803F00F038B4201D0012070BD236858
:1019980013F0020F17D013F0040F04D0454A9368D0
:1019A80043F4E0539360236813F0080F04D0414ACE
:1019B800936843F4604393603E4A936823F0F003CE
:1019C800A068034393600D46236813F0010F32D0DB
:1019D8006368012B21D09A1E012A25D9354A12683D
:1019E80012F0020F61D033498A6822F003021343D0
:1019F8008B60FEF765FF06462E4B9B6803F00C03D1
:101A08006268B3EB820F16D0FEF75AFF801B41F2D3
:101A180088339842F0D90320B8E7264A126812F4AE
:101A2800003FE0D10120B1E7224A126812F0007F9E
:101A3800D9D10120AAE71E4B1B6803F00F03AB4264
:101A480009D9EAB21A4B1A701B6803F00F03AB42AC
:101A580001D001209AE7236813F0040F06D0154A35
:101A6800936823F4E053E1680B439360236813F011
:101A7800080F07D00F4A936823F46043216943EAAB
:101A8800C1039360FFF71AFF0A4B9B68C3F3031364
:101A9800094AD35CD840094B1860094B1868FEF70F
:101AA800C5FE002072E70120704701206EE700BFE5
:101AB800003C024000380240B42200080000002028
:101AC80008000020014B1868704700BF0000002084
:101AD80008B5FFF7F7FF044B9B68C3F38223034A5B
:101AE800D35CD84008BD00BF00380240C4220008BB
:101AF80008B5FFF7E7FF044B9B68C3F34233034A7B
:101B0800D35CD84008BD00BF00380240C42200089A
:101B180030B583B00446036813F0050F0ED123686F
:101B280013F0020F38D1236813F0080F00F09B80E0
:101B3800227D4E4B1A60002003B030BD4C4B002272
:101B48001A60FEF7BDFE05464A4B1B6813F0006F8E
:101B580006D0FEF7B5FE401B0228F5D90320EBE7B7
:101B68006368A26843EA8213E26843EA0273414A5F
:101B7800C2F884303E4B01221A60FEF7A1FE0546EA
:101B88003C4B1B6813F0006FC9D1FEF799FE401B50
:101B98000228F5D90320CFE700230193354B1A6CAF
:101BA80042F080521A641B6C03F080530193019B2E
:101BB800314A136843F480731360FEF781FE0546CB
:101BC8002D4B1B6813F4807F06D1FEF779FE401B6E
:101BD8000228F5D90320AFE7264B1B6F13F4407397
:101BE80012D0226902F440729A420DD0214B1A6F2A
:101BF80022F44072214901200860002008601A6719
:101C08001B6F13F0010F12D1236903F44072B2F570
:101C1800407F1DD0174A936823F4F8139360154941
:101C28000B6F2269C2F30B0213430B677BE7FEF7C6
:101C380047FE05460F4B1B6F13F0020FE4D1FEF76A
:101C48003FFE401B41F288339842F3D9032073E7E3
:101C580008498A6822F4F81223F0704323F4407389
:101C680013438B60DBE7002066E700BFE0114742C3
:101C7800680047420038024000700040400E47426A
:101C880001282CD1184B9B6813F4000303D0012BB7
:101C980027D116487047144B5B6813F4800F15D092
:101CA800114BD3F8843003F03F031148B0FBF3F035
:101CB8000D4AD2F88430C3F3881300FB03F0D2F83E
:101CC8008430C3F30273B0FBF3F07047064BD3F8CC
:101CD800843003F03F030748B0FBF3F0E8E7002047
:101CE80070470020704700BF003802400080BB00EA
:101CF80040787D010024F4000268D36823F49073CF
:101D0800D3600268536923F001035361202380F8EC
:101D18003A30704790F83930DBB2212B2AD18368EA
:101D2800B3F5805F16D0036A5A1C02621A780368FA
:101D38005A60C38C013B9BB2C384EBB90268D36879
:101D480023F08003D3600268D36843F04003D36074
:101D580000207047036A1B880268C3F308035360B6
:101D680003691BB9036A02330362E2E7036A0133BA
:101D78000362DEE702207047002070472DE9F04B30
:101D880004460268136923F44053C1680B43136186
:101D980083680269134342691343C2691A4301689D
:101DA800CB6823F4164323F00C031343CB6002687B
:101DB800536923F4407381690B435361C369B3F5D5
:101DC800004F3BD00368714A934200F0AB8002F5A4
:101DD8008062934200F0A680FFF77AFE4FF0000978
:101DE800061849EB090716EB000B47EB090C4FEAFD
:101DF800CC0343EA5B734FEACB0293469C46636885
:101E08009A009B0F10EB0B0049EB0C01FEF7E0F971
:101E18005F4DA5FB00325109642202FB1102130138
:101E28003233A5FB03235B0903F0F00202EB011236
:101E380003F00F03216813448B60A4E00368534A3E
:101E4800934239D002F58062934235D0FFF740FEC5
:101E580083464FF0000C06184CEB0C0716EB0008F5
:101E680047EB0C094FEAC90343EA58734FEAC80223
:101E78009046994662680021921841EB01031BEBDA
:101E880008004CEB0901FEF7A3F9414DA5FB003210
:101E98005109642202FB1102D3003233A5FB03234C
:101EA8005B095A0002F4F87202EB011203F007030F
:101EB800216813448B6066E0FFF71AFE80464FF0F6
:101EC8000009061849EB090716EB000B47EB090C4C
:101ED8004FEACC0343EA5B734FEACB0293469C4636
:101EE80062680021921841EB010318EB0B0049EBE3
:101EF8000C01FEF76DF9264DA5FB0032510964224D
:101F080002FB1102D3003233A5FB03235B095A00FD
:101F180002F4F87202EB011203F00703216813447C
:101F28008B6030E0FFF7E4FD4FF00009061849EB3D
:101F3800090716EB000B47EB090C4FEACC0343EA01
:101F48005B734FEACB0293469C4663689A009B0FEB
:101F580010EB0B0049EB0C01FEF73AF90C4DA5FB11
:101F680000325109642202FB110213013233A5FB2E
:101F780003235B0903F0F00202EB011203F00F03E5
:101F8800216813448B60BDE8F08B00BF001001404E
:101F98001F85EB5158B310B5044690F839300BB390
:101FA800242384F839302268D36823F40053D3609B
:101FB8002046FFF7E3FE2268136923F49043136178
:101FC8002268536923F02A0353612268D36843F4D3
:101FD8000053D3600020E063202384F8393084F86C
:101FE8003A3010BD80F83830FEF7B8FBD8E701204A
:101FF8007047704708B50168CB6823F04003CB6091
:10200800202380F83930FFF7F4FF002008BD70471F
:1020180008B590F83A30DBB2222B45D18368B3F586
:10202800805F0ED0036903BB03685A68836A591C32
:1020380081621A70C38D013B9BB2C385F3B1002046
:1020480033E0826A036943B903685B68C3F3080332
:102058001380836A02338362ECE703685B68DBB250
:102068001380836A01338362E4E703685B68826AEA
:10207800511C816203F07F031370DBE70268D368A9
:1020880023F02003D3600268D36823F48073D360FD
:102098000268536923F001035361202380F83A3022
:1020A800FFF7B5FF002000E0022008BD70470000E0
:1020B80010B5044602681368D168526913F00F001E
:1020C80005D113F0200F02D011F0200F56D10028AF
:1020D8006AD012F0010202D111F4907F64D013F09B
:1020E800010F06D011F4807F03D0E06B40F00100AF
:1020F800E06313F0040F04D01AB1E06B40F0020063
:10210800E06313F0020F04D01AB1E06B40F0040052
:10211800E06313F0080F07D011F0200F00D11AB1B7
:10212800E26B42F00802E263E26B002A48D013F047
:10213800200F02D011F0200F24D123685B6903F02F
:102148004003E26B12F0080F00D13BB32046FFF7C3
:10215800D3FD23685A6912F0400F1BD05A6922F048
:1021680040025A61636B8BB11A4A1A65606BFEF7BD
:10217800E3FC28B3606B036D984721E02046FFF726
:1021880047FF1DE02046FFF743FFD6E72046FFF74D
:102198008DFF15E02046FFF789FF11E02046FFF785
:1021A80085FF0023E3630BE013F0800F02D011F0EA
:1021B800800F06D113F0400F02D011F0400F04D168
:1021C80010BD2046FFF7A6FDFAE72046FFF712FFED
:1021D800F6E700BFE121000808B5806B0023C3853E
:1021E800C384FFF763FF08BDDFF834D0002103E0A4
:1021F8000C4B5B58435004310B480C4B42189A4225
:10220800F6D30B4A02E0002342F8043B094B9A42FA
:10221800F9D3FEF7FDFA00F011F8FEF715FA70474A
:1022280000000220E4220008000000200C0000202A
:102238000C00002014010020FEE7000070B50D4ED0
:102248000D4CA41BA4100025A54209D10B4E0C4C23
:1022580000F020F8A41BA4100025A54205D170BDEC
:1022680056F8253098470135EEE756F82530984757
:102278000135F2E7DC220008DC220008DC22000835
:10228800E022000802440346934200D1704703F855
:10229800011BF9E7F8B500BFF8BC08BC9E467047BB
:0C22A800F8B500BFF8BC08BC9E467047AB
:1022B40000000000000000000102030406070809F2
:1022C40000000000010203040006101600061016A8
:0822D40034DFFF7F0100000070
:0422DC00BD01000838
:0422E0009901000858
:0C22E4000024F4000100000010000000C5
:04000005080021F1DD
:00000001FF
